:020000040800F2
:10000000802D002005010008DB360008F5320008CD
:10001000D93600086D0C0008553E000800000000AD
:10002000000000000000000000000000B9370008D8
:10003000B30C000800000000DD360008BB370008E4
:100040001F0100081F0100081F0100081F01000810
:100050001F0100081F0100081F0100081F01000800
:100060001F0100081F0100081F010008710C000893
:100070007D0C00081F0100081F0100081F01000877
:100080001F0100081F0100081D0B00081F010008C8
:100090001F0100081F0100081F0100081F010008C0
:1000A0001F0100081F0100081F0100081F010008B0
:1000B000393800081F010008453800081F010008F2
:1000C0001F0100081F0100081F0100081F01000890
:1000D0001F010008493E00081F0100081F01000819
:1000E0001F0100081F0100081F010008DFF810D0E1
:1000F00000F002FD00480047314A0008AFF30080DD
:10010000802D00200648804706480047FEE7FEE7AE
:10011000FEE7FEE7FEE7FEE7FEE7FEE7FEE7FEE7B7
:1001200037380008ED000008202A04DB203A21FAC5
:1001300002F00021704721FA02F3D040C2F1200200
:100140009140084319467047D2B201E000F8012BF4
:10015000491EFBD270470022F6E710B513460A4647
:1001600004461946FFF7F0FF204610BDF0B480EAC0
:100170000102D40F4200B2EB410F02D20246084600
:1001800011464A0042D0C30DDDB2C1F3C752AD1AC9
:10019000202D35DAC1F3160141F4000204B15242B8
:1001A000C5F1200602FA06F12A411044B3EBD05FF4
:1001B00023D0C4B1012DA0EBC35009DCF0BC4FF03B
:1001C000004202EAC352DBB200F5000000F09FBB20
:1001D000400000F1807000EBC350A0F1807040EA55
:1001E000D170490009E0490841EAC071A0EBC35051
:1001F00000F50000400800EBC350F0BC00F07EBBEF
:100200006142012202EB4101001BF6E7F0BC70479E
:1002100081F00041AAE780F00040A7E780EA0102F0
:1002200010B502F00043400022D04A001FD0010E5A
:1002300001EB1261C0F35600C2F3560240F4000015
:1002400042F40002A0FB022000047F39140400D015
:10025000401C50EA124001D44000491EC2B20C06B4
:1002600004EBD010401C4008802A02D003E000209C
:1002700010BD20F00100002900DA0020184310BD55
:1002800030B480EA010202F0004530F0004221F073
:10029000004013D090B1C30DD40DC2F31601C0F3CA
:1002A0001600E41A41F4000140F400027D3491424A
:1002B00001D3641C00E04900002C02DA30BC0020AD
:1002C00070474FF400000023914201D3891A034381
:1002D00040084FEA4101F7D151B1914202D14FF0AC
:1002E000004105E002D24FF0010101E06FF0010191
:1002F00003EBC450284430BC00F000BB420005D0E2
:10030000C0F3C7525242914201DC0020704700EB1B
:10031000C15070472DE9FE4F804681EA0300C00FAF
:100320000C46009021F0004123F00045B8EB02009C
:10033000A94105D24046214690461C460B4602463E
:1003400023F00040104347D0270DC7F30A00C3F342
:100350000A510290401A019040286BDAC3F313004F
:1003600040F4801B0098924620B10023D2EB030A90
:1003700063EB0B0B01985946C0F14002504600F068
:100380009CFA06460D4650465946019A00F0A4FADA
:1003900010EB08006141002487EA115284EAE773F8
:1003A0001A4340D0009A62B3019A012A4FEA0752D9
:1003B00015DC001B61EB02014FF0004202EA07521C
:1003C000CDE90042001C41F5801132462B4600F079
:1003D000DBFA03B0BDE8F08F40462146F9E7001B89
:1003E00061EB0201001C41F5801300185B412018ED
:1003F000A2F5001747EB030140EAD570B6196D412D
:1004000011E06D084FEA360645EAC0754FEA07521B
:10041000001B61EB0201001C41F5801149084FEA05
:1004200030000019514132462B4603B0BDE8F04F71
:1004300000F09BBA0098012240000023D0EB02029A
:1004400063EBE073009821464FEAE074B8EB0000DC
:1004500061EB0401E9E783F000435BE781F00041D1
:1004600058E72DE9FE4F81EA030404F0004421F02F
:10047000004100944FF0000B23F0004350EA0104C8
:100480005ED052EA03045BD0C3F30A54C1F30A55A9
:100490002C44A4F2F3340194A0FB0254C1F31301E1
:1004A00041F48011C3F3130343F4801301FB0244AE
:1004B00000FB034E840A970A44EA815447EA8357B3
:1004C000A4FB076802958D0A05FB07854FEA932C6C
:1004D00004FB0C542705029D4FEA065847EA1637DD
:1004E000B5EB08056EEB070C870E920E47EA8117F5
:1004F00042EA8312A7FB0201B6EB0B0164EB000496
:100500002B0D43EA0C335E1844EB1C50DA4651467F
:10051000E7FB0201C5F313044FEA0B3343EA14531C
:100520004FEA0432019C43EA0603A4F10C0402944E
:10053000009CCDE900B400F027FA03B0BDE8F08FCD
:1005400000200146F9E72DE9F04D81EA030404F0AB
:10055000004B21F0004514464FF0000A23F0004103
:1005600050EA050220D054EA01021DD0C5F30A5713
:100570000246C5F31303C1F31300C1F30A5640F456
:10058000801543F48013A7EB0608101BD64608F22B
:10059000FD3873EB050002D308F1010801E0921861
:1005A0005B41B8F1000F03DA00200146BDE8F08D91
:1005B00000204FF48011064684460EE0171B73EBB3
:1005C000050705D3121B63EB050306434CEA010C38
:1005D00049084FEA300092185B4150EA0107EDD11B
:1005E00052EA030012D082EA040083EA05010843BC
:1005F00005D0101BAB4106D20122002306E00022E9
:100600004FF0004302E06FF0010253101AEB0600B6
:100610004CEB085110EB0A0041EB0B01BDE8F04D2B
:1006200000F0A3B970B521F0004303430CD0C1F32F
:100630000A550024D5EB040564EB0403D617AD1A64
:10064000B34102DB0020014670BD201841EB02518E
:1006500070BDC10F80EAE0700844CA0796230021EC
:1006600000F055B996230022114600F050B90EB59E
:10067000C10F80EAE0700844CA07002140F233430A
:100680008DE80E000A460B4600F07EF903B000BD6F
:100690000EB540F2334102910021CDE900110A4626
:1006A0000B4600F071F903B000BD00F0004220F0ED
:1006B0000040C10DC0F3160040F400007F2901DAAC
:1006C00000207047962903DCC1F19601C84001E083
:1006D00096398840002AF4D04042704720F000400C
:1006E000C10DC0F3160040F400007F2901DA00209C
:1006F0007047962903DCC1F19601C84070479639CE
:100700008840704770B5C1F30A5201F000450024DB
:10071000C1F3130140F2FF3341F480119A4201DA30
:10072000002070BD40F233439A42A2F2334203DC10
:100730005242FFF7F9FC00E090402C43F1D04042D8
:1007400070BDC1F30A5210B5C1F3130140F2FF337B
:1007500041F480119A4201DA002010BD40F2334387
:100760009A42A2F2334203DC5242FFF7DDFC10BD95
:10077000904010BD00F0004230F000400AD0C10DA2
:1007800001F56071C0F3160042EA0151C20840074A
:1007900011437047002001467047000030B5041E29
:1007A00071F1000404DB4FF00044404264EB0101AE
:1007B000141E73F1000405DB1C464FF00043524247
:1007C00063EB0403994208BF904230BD01F000433F
:1007D00030B421F0004150EA010206D00A0DA2F522
:1007E0006072C1F31301002A02DC30BC00207047A4
:1007F000440F44EAC104C100E01830BC00EBC25011
:1008000000F07CB8002801DBC0F10040002901DBCA
:10081000C1F1004181427047002801DBC0F1004076
:10082000002901DBC1F100418842704730B50B4619
:10083000014600202022012409E021FA02F59D4210
:1008400005D303FA02F5491B04FA02F52844151EE4
:10085000A2F10102F1DC30BD2DE9F05F0546002078
:1008600092469B4688460646814640241BE0284621
:10087000414647462246FFF757FC53465A46C01AA0
:10088000914110D311461846224600F016F82D1A51
:1008900067EB01084F4622460120002100F00DF8C9
:1008A00017EB00094E41201EA4F10104DFDC48468D
:1008B00031462A464346BDE8F09F202A04DB203A11
:1008C00000FA02F1002070479140C2F1200320FAA3
:1008D00003F3194390407047202A06DBCB17203AD8
:1008E00041FA02F043EAE07306E041FA02F3D04035
:1008F000C2F1200291400843194670470029A8BF61
:100900007047401C490008BF20F00100704710B438
:10091000B0FA80FC00FA0CF050EA010404BF10BCED
:10092000704749B1CCF1200421FA04F411FA0CF11A
:1009300018BF012121430843A3EB0C01CB1D4FEA53
:1009400000614FEA102042BF002010BC704700EB4E
:10095000C35010440029A4BF10BC7047401C49007C
:1009600008BF20F0010010BC704710B5141E73F1D1
:10097000000408DA401C41F1000192185B411A435F
:1009800001D120F0010010BD2DE9F04D92469B46AB
:1009900011B1B1FA81F202E0B0FA80F22032904651
:1009A000FFF78BFF04460F4640EA0A0041EA0B01BD
:1009B00053465A46084313D0114653EA010019D052
:1009C000C8F140025046FFF7AFFB05460E465046C1
:1009D00059464246FFF771FF084305D0012004E065
:1009E00020463946BDE8F08D0020054346EAE07612
:1009F0002C4337430A986305E40AA0EB0800002261
:100A0000FD0A44EA47540A3002D500200146E9E7CE
:100A1000010510196941DDE9084500196941BDE882
:100A2000F04DA2E72DE9F04D00231A461B1A8A412A
:100A300003DB00200146BDE8F08DC1F30A52C1F38B
:100A4000130141F480154FF0000BD10702D10018BB
:100A50006D41521E0027044640F2FF11384601EB5B
:100A6000620A3E468046024600204FF48011FFF79E
:100A70005BFBC2197141BB1846EB0100B4EB030CE0
:100A800075EB000C04D3E41A65EB000517460E461F
:100A9000241908F101006D4180463428E3DDF9197D
:100AA00046EB0600091BA84103D24FF0FF32134664
:100AB00001E0002213461BEB070046EB0A51BDE89C
:100AC000F04DFFF752BFC1F30A52C1F3130140F2D8
:100AD000FF3341F480119A4202DA00200146704748
:100AE00040F233439A42A2F2334202DC5242FFF711
:100AF0001BBBFFF7E2BE0000064C074D06E0E068B6
:100B000040F0010394E8070098471034AC42F6D354
:100B1000FFF7F0FA1C5100083C510008014800F0B2
:100B2000C5B900000827002070B504460068816838
:100B3000C943C90717D1816821F00101816000F024
:100B40002FFE05460AE000BF00F02AFE401B0228E7
:100B500004D920688068C043C00706D02068806838
:100B6000C043C007F0D0002070BDA06A40F0100064
:100B7000A062E06A40F00100E062012070BD10B5A3
:100B80000146406A826A12F0500F05D0006A026B7B
:100B9000BDE8104008461047816A41F40071816247
:100BA00001688968C1F3424107290CD1017B51B921
:100BB000816A21F480718162816AC90403D4816AE7
:100BC00041F00101816200F063F910BD10B5406A87
:100BD000816A41F040018162C16A41F00401C16251
:100BE00000F063F910BD10B5406A00F05DF910BD6A
:100BF000F8B500260446009600688168C943C90715
:100C00002DD0816841F001018160164816490068C5
:100C1000B0FBF1F000E0401E00900028FBD100F096
:100C2000BFFD054616E000BF00F0BAFD401B0228DC
:100C300010D920688068C043C0070BD0A06A40F07C
:100C40001000A062E06A40F00100E06284F82460D5
:100C50000120F8BD20688068C043C007E4D10020AF
:100C6000F8BD00007800002040420F00FEE70000C1
:100C7000014800F08FBB000038270020014800F039
:100C800089BB0000F428002030B590F840500124C2
:100C9000AC40C56B6C60046863604368102B0368EC
:100CA00003D099600068C26030BD9A600068C1607E
:100CB00030BD704772B6FEE7F8B5002504460095D2
:100CC00090F82400012808D0012084F82400204650
:100CD000FFF72AFF060002D053E00220F8BDA06A09
:100CE00020F4885040F00200A062022000F0F6FDDF
:100CF00026490968B1FBF0F0400000E0401E00907A
:100D00000028FBD12046FFF773FF2068816841F07F
:100D10000801816000F044FD074608E000F040FD56
:100D2000C01B0A2803D920688068000715D42068F2
:100D300080680007F2D42068816841F00401816076
:100D400000F02EFD074612E000F02AFDC01B0A2825
:100D50000DD920688068400709D5A06A20F00200FC
:100D600040F01000A06284F824500120F8BD2068F3
:100D700080684007E8D4A06A20F0020040F001003B
:100D8000A06284F824503046F8BD000078000020AE
:100D900070470000F8B50024009490F82420254600
:100DA000012A12D0012280F824204A681F23072A32
:100DB0000DD20668776B521E02EB820293409F436E
:100DC0000B6893401F43776319E00220F8BD066863
:100DD0000D2A0AD2376BD21F02EB820293409F4347
:100DE0000B6893401F43376309E0F76A0D3A02EB43
:100DF000820293409F430B6893401F43F7620A6847
:100E0000072306680A2A0AD3F7680A3A02EB420265
:100E100093409F438B6893401F43F76008E0376916
:100E200002EB420293409F438B6893401F4337611C
:100E30000A68102A01D0112A20D1124B02689A4266
:100E400017D193681B0219D4936843F4000393608D
:100E50000968102912D10C490C4A0968B1FBF2F15A
:100E600001EB8101490000E0491E00910029FBD1FE
:100E700004E0816A41F020018162012480F824505D
:100E80002046F8BD002401407800002040420F00B9
:100E900000680349884202D10249012088607047F6
:100EA00000240140000000207047704710B5044640
:100EB00000684168890626D50168890723D5A16A9B
:100EC000C90603D4A16A41F40071A1628168C1F32B
:100ED0004241072910D1217B71B9416821F02001DD
:100EE0004160A06A20F48070A062A06AC00403D4AC
:100EF000A06A40F00100A0622046FFF7C9FF216808
:100F00006FF0120008602068416809062ED501685C
:100F100049072BD5A16AC90603D4A16A41F400513F
:100F2000A1628168C1F30231072909D041684905EE
:100F300015D48168C1F34241072910D1217B71B9D1
:100F4000416821F080014160A06A20F48050A062D5
:100F5000A06AC00503D4A06A40F00100A062204648
:100F6000FFF716FF21686FF00C00086020684168E9
:100F700049060DD50068C0070AD0A06A40F4803049
:100F8000A062204600F094F821686FF0010008602C
:100F900010BD00002DE9F0414FF0000704003D4670
:100FA0007ED0A06A002628B9E66284F82460204634
:100FB00000F080F82046FFF7B7FDA16AC90600D40B
:100FC00020B1A06A40F01000A06269E0A16A21F49B
:100FD000885141F00201A1626268E169237B0A4302
:100FE00047EA43010A43A1684FF48077B94209D028
:100FF000012907D05FF0000194F814C0BCF1010F83
:1010000002D00AE03946F7E7F3B1A36A43F02003C0
:10101000A362E36A43F00103E3622368D3F804C0E8
:101020002CF4694C4CEA010CC3F804C021688B68AD
:10103000DFF870C003EA0C0313438B60A168B94268
:101040000BD0012909D00CE0DFF85CC0A3690CEBE0
:1010500043330B4343F40061DFE7218A0D05A5F517
:1010600080152168CB6A23F470032B43CB6221687F
:1010700089680E4B1940914208D1E662A16A21F0BD
:10108000020141F00101A162BDE8F081A06A20F0F7
:10109000020040F01000A062E06A40F00100E0624F
:1010A0000120F1E7FDF7E1FF00E0FFFFFE0E1FFF6B
:1010B0007047000070B586B0002506460095019582
:1010C0000295039500681E49884236D11D498869FA
:1010D00040F400708861886900F4007004908869A9
:1010E00040F0040088618869694600F004000490BB
:1010F0000120009003200190134800F05BFA144C8B
:101100001248C4E900058020C4E902508000206133
:10111000800060612020C4E90605204600F0E4F963
:1011200008B1FFF7C7FD3462002211461220666243
:1011300000F0A2FB122000F091FB06B070BD000091
:101140000024014000100240000801400800024055
:10115000382700202DE9F047894604463B490068BE
:101160003B4F0E1D9046884201D0B84207D13068EF
:1011700010F4702F03D001252846BDE8F08794F8BD
:10118000240001280CD0012084F824002046FFF719
:101190002FFD05004FF0000004D084F82400EBE799
:1011A0000220EAE7A16A40F60162914341F48071AE
:1011B000A1622168B94218D1326812F4702F14D09C
:1011C000A16A41F48011A1623168490505D5A16A7F
:1011D00021F4005141F48051A162A16AC9040AD5E9
:1011E000E16A21F00601E16206E0A26A22F48012BF
:1011F000A2624968E9E7E06284F82400216A1548A0
:101200008862216A1448C862216A14480863216808
:101210006FF0020008602068816841F4807181608D
:10122000216843464A464C31206A00F08BF9206819
:101230008168C1F342410729816803D041F48011DC
:10124000816099E741F4A001FAE700000024014021
:10125000002801407F0B0008E70B0008CD0B0008B9
:1012600010B5044690F82400012807D0012084F826
:1012700024002046FFF758FC10B113E0022010BDF7
:1012800021688A6822F480728A60216A91F821209C
:10129000022A07D1084600F00EF8A16A30B141F0E9
:1012A0004001A162002184F8241010BD21F488516E
:1012B00041F00101F5E710B590F821100022022954
:1012C00005D00421816380F82020012010BD016831
:1012D0000B6823F00E030B6001680B6823F0010319
:1012E0000B6090F84030C46B012101FA03F3636096
:1012F00080F8211080F82020104610BD10B590F81D
:1013000021100024022903D00421816301243DE03F
:1013100001680A6822F00E020A6001680A6822F079
:1013200001020A601A4A0168914201D1012121E0BB
:10133000174A1432914201D110211BE0144A28327D
:10134000914201D1891515E0114A3C32914201D1F7
:1013500089140FE00E4A5032914202D14FF480318D
:1013600008E00B4A6432914202D14FF4801101E04F
:101370004FF08071064A083A5160012180F821102F
:10138000002180F82010416B01B18847204610BD34
:10139000080002402DE9F05FC16B0C6801680B6822
:1013A000D0F840C0042202FA0CF2494DDFF824A123
:1013B000494E4A4FDFF828B1DFF828E122422CD00D
:1013C0005A072AD50A68920603D40A6822F0040252
:1013D0000A600168A94201D1042219E0514501D1F6
:1013E000402215E0B14202D14FF4806210E0B942D0
:1013F00002D14FF480420BE0594502D14FF48022D4
:1014000006E0714502D14FF4800201E04FF08062A6
:101410002F4908394A60C16A3BE04FF0020808FAD8
:101420000CF818EA040F4FF000094FF0010235D014
:101430005FEA837832D50B689B0605D40B6823F0EE
:101440000A030B6080F821200168A94201D1022221
:1014500019E0514501D1202215E0B14202D14FF4EB
:10146000007210E0B94202D14FF400520BE059452E
:1014700002D14FF4003206E0714502D14FF4001260
:1014800001E04FF00072124908394A6080F820905C
:10149000816A00291AD0BDE8F05F0847082505FADF
:1014A0000CF5254212D01B0710D50B6823F00E0354
:1014B0000B6090F84010C36B02FA01F1596082632F
:1014C00080F8212080F82090016BE2E7BDE8F09FD2
:1014D000080002401C00024030000240440002406C
:1014E000580002406C00024030B528B308C81349C8
:1014F00014221944B1FBF2F18900C16310498163E0
:10150000022141771A6843F6F0718A43D0E900144A
:101510002143D0E902452C43214304692143446916
:101520002143846921431143196000214163012251
:1015300042770177084630BD012030BDF8FFFDBF7E
:101540000000024070B5044690F8200000250128F4
:101550000CD0012084F8200094F821600020012E96
:1015600006D084F820000225284670BD022070BDF8
:10157000022684F82160A0632068066826F0010630
:1015800006602046FFF780FBE06A002820680168BB
:1015900002D041F00E0106E021F004010160206854
:1015A000016841F00A0101602068016841F0010111
:1015B0000160D9E72DE9F84FDFF8B891002409F16F
:1015C000040A0AF1040B23460F270BF1040EC9E0AD
:1015D0000125A5402A40AA427DD1674ED1F804C01A
:1015E000ACEB0608B44532D014DCBCF1030F3AD0A2
:1015F00009DCBCF1000F2AD0BCF1010F1CD0BCF1FA
:10160000020F31D11DE0BCF1110F17D0BCF1120F48
:101610002AD119E0B8F5881F19D006DCB8F5803F4B
:1016200015D0B8F5801F1FD111E0B8F5001F0ED0FE
:10163000B8F5041F18D10AE0CB6815E0CB681B1D74
:1016400012E0CB6808330FE0CB680C330CE08B68FA
:101650002BB1012B4FF0080303D0456104E00423B4
:1016600002E0056100E00023FF2A01D8064601E000
:1016700000F104064FEA840501D9A5F12005D6F84A
:10168000008007FA05FC28EA0C0803FA05F548EA89
:101690000508C6F800804D68ED0062D5374DAE698B
:1016A00046F00106AE61AD6924F0030605F00105C0
:1016B0000095334D06EB050CDCF80850A607360FF5
:1016C00007FA06F825EA0805DFF8B880404503D197
:1016D0004FF0000817E044E0DFF8AC80404502D14D
:1016E0004FF001080FE0DFF8A480404502D14FF031
:1016F000020808E0DFF89880404502D14FF0030867
:1017000001E04FF0040808FA06F848EA0508CCF8AA
:1017100008804D68D9F80060ED034D4601D51643A9
:1017200000E096432E604D68DAF80060AD03554640
:1017300001D5164300E096432E604D68DBF800604B
:10174000ED025D4601D5164300E096432E604D68DC
:10175000DEF80060AD02754601D5164300E0964301
:101760002E60641C0D682A46E5407FF431AFBDE869
:10177000F88F00000004014000001110001002402A
:101780000000014000080140000C01400010014031
:10179000001401400AB1016170470904FBE7000031
:1017A00001488068704700006C0000200248816892
:1017B00002781144816070476C000020074810B522
:1017C000016841F010010160032000F075F80F205E
:1017D00000F006F800F024F8002010BD00200240C0
:1017E00070B50D4D04464FF47A712878B1FBF0F0D6
:1017F0000A490968B1FBF0F000F001FD48B9102C6E
:1018000007D200222146501E00F036F800206C60FE
:1018100070BD012070BD00006C0000207800002029
:101820000C4808B5816941F001018161816901F0CD
:1018300001010091C16941F08051C161C06900F0AE
:10184000805000900448416821F0E06141F000714F
:10185000416008BD0010024000000140002809DB83
:1018600000F01F02012191404009800000F1E020BA
:10187000C0F8001170470000F0B40E4B1B680C4616
:10188000C3F30223C3F10705042D00D90425191D54
:10189000072901D2002300E0DB1E012606FA05F12C
:1018A000491E214099409E40761E16403143F0BCAF
:1018B00002F03CBB0CED00E0064900F007020868AE
:1018C0004FF6FF03184040EA0220034A1043086025
:1018D000704700000CED00E00000FA0510B529A4E7
:1018E00001461DCC86B08DE81D002AA02A4C006858
:1018F00004900020012923D002293AD010291DD1BB
:1019000061682268D20119D5C1F38342C9031DF869
:10191000020009D5616804AAC1F34041515C1F4A25
:10192000B2FBF1F1484301E01D49484361684902B7
:1019300004D440005FF00301B0FBF1F006B010BD2D
:10194000226AC2F30121012903D1920701D5C803FC
:10195000F4E7022905D1626A920702D549F64040B0
:10196000ECE70329EAD121688903E7D54FF2244047
:10197000E4E700F033F96168C1F38131491C4900A3
:10198000DAE7000002030405060708090A0B0C0D3C
:101990000E0F1010010200000010024000127A0029
:1019A00000093D002DE9F84305460078354CC00795
:1019B00054D0E0690026C00008D4E06940F08050AF
:1019C000E061E069012600F0805000902E48016837
:1019D000C90512D40168804641F480710160FFF7A7
:1019E000DFFE074605E000BFFFF7DAFEC01B6428F4
:1019F00023D8D8F80000C005F6D5206A10F440704E
:101A000021D0A98801F4407181421CD0206A1F496D
:101A1000012220F440700A6000220A602062C007A0
:101A200011D0FFF7BDFE074641F2883808E000BF3D
:101A3000FFF7B6FEC11B414502D90320BDE8F8837C
:101A4000206A8007F4D5206A696820F44070084352
:101A500020621EB1E06920F08050E06128788007A4
:101A600005D56068A96820F4404008436060287884
:101A7000C00605D56068E96820F48000084360600E
:101A80000020DBE7001002400070004040044242AA
:101A90002DE9F0470F46050061D0434E306800F055
:101AA0000700B84209D2306820F0070038433060A0
:101AB000306800F00700B84251D128683B4C8107DC
:101AC00012D5400703D5606840F4E0606060287874
:101AD000000703D5606840F4605060606068A968E2
:101AE00020F0F000084360602878C00728D06868BC
:101AF000012810D02168022810D0890700292EDA89
:101B0000616821F0030101436160FFF749FE8046EF
:101B100041F288390DE021688903EFE78901EDE79B
:101B2000FFF73EFEA0EB0801494502D90320BDE8BE
:101B3000F0876068696800F00C00B0EB810FEFD1AE
:101B4000306800F00700B8420BD9306820F0070079
:101B500038433060306800F00700B84201D00120FF
:101B6000E5E72878400705D56068E96820F4E0607B
:101B7000084360602878000706D56068296920F46A
:101B8000605040EAC100606000F038F86168084ABF
:101B9000C1F30311515CC84006490860064800685B
:101BA000FFF71EFE0020C2E70020024000100240A6
:101BB000B850000878000020700000200448054953
:101BC00000684968044AC1F30221515CC84070476B
:101BD0007800002000100240C85000080448054961
:101BE00000684968044AC1F3C221515CC84070478B
:101BF0007800002000100240C850000812A185B0F3
:101C00000FC98DE80F0014A0144A006804905168B1
:101C1000134801F00C03042B10D0082B0ED1C1F394
:101C20008343C9031DF803000AD5516804AAC1F310
:101C30004041515C0A4A5043B0FBF1F005B0704797
:101C400008494843FAE700000203040506070809AB
:101C50000A0B0C0D0E0F10100102000000100240C4
:101C600000127A0000093D002DE9F84F040070D001
:101C70002078C04DC00749D06868C0F381000128B2
:101C800007D06868C0F38100022809D16868C003E2
:101C900006D52868800339D560680028E7D035E08C
:101CA0006068B0F5803F0BD010B1B0F5A02F11D017
:101CB000286820F480302860286820F4802002E022
:101CC000286840F480302860606890B1FFF768FDB4
:101CD00006460AE0286840F480202860F0E700BF4C
:101CE000FFF75EFD801B642873D828688003F7D552
:101CF0000CE0FFF755FD064605E000BFFFF750FD7D
:101D0000801B6428F0D828688003F7D420789A4E86
:101D100080074FF001094FF0000839D5686810F0CE
:101D20000C0F07D06868C0F38100022809D16868E9
:101D3000C00306D42868800714D52069012808D17B
:101D400010E02069B0B1C6F80090FFF729FD074602
:101D500005E00AE1FFF724FDC01B0228C4D828686B
:101D60008007F7D52868616920F0F80040EAC100D3
:101D700028600DE0C6F80080FFF712FD074604E07A
:101D8000FFF70EFDC01B022823D828688007F7D470
:101D9000207800072CD57948A169D9B1C0F8009006
:101DA000FFF7FEFC074604E0FFF7FAFCC01B022821
:101DB0000FD8686A8007F7D571484FF4FA51006868
:101DC000B0FBF1F0009000BF0098411E0091FAD2E4
:101DD0000EE080E0C0F80080FFF7E2FC074604E078
:101DE000FFF7DEFCC01B022875D8686A8007F7D4AD
:101DF0002078400760D5E8690027C00008D4E8696A
:101E000040F08050E861E869012700F080500090C0
:101E10005C480168C90513D40168834641F48071A8
:101E20000160FFF7BDFC824606E000BFFFF7B8FC8B
:101E3000A0EB0A0064284ED8DBF80000C005F5D5F9
:101E4000E06801280AD008B1052813D0286A20F0DC
:101E500001002862286A20F0040002E0286A40F0AD
:101E600001002862E06841F2883B98B1FFF798FCD6
:101E700082460BE0286A40F004002862EEE700BFCB
:101E8000FFF78EFCA0EB0A0159455AD8286A800753
:101E9000F6D50CE0FFF784FC824605E0FFF780FCF6
:101EA000A0EB0A0159454CD8286A8007F6D41FB127
:101EB000E86920F08050E861E06988B36968C1F39F
:101EC0008101022944D00228C6F8608004D0FFF7BF
:101ED00067FC044638E034E0FFF762FC074604E0A4
:101EE000FFF75EFCC01B02282BD828688001F7D4BE
:101EF000206AB0F5803F05D16868A16820F4003001
:101F000008436860D4E908010843696821F4741142
:101F100008436860C6F86090FFF742FC044606E09C
:101F200025E000BFFFF73CFC001B022809D8286809
:101F30008001F7D51BE000BFFFF732FC001B022831
:101F400002D90320BDE8F88F28688001F4D40EE0A0
:101F50000128F7D06868226A00F48031914204D1E8
:101F6000616A00F47010884201D00120EAE7002085
:101F7000E8E70000001002400000424280044242B4
:101F8000780000200070004070B5040009D0606A3D
:101F9000002540B125616561A56294F8510040B10A
:101FA0000CE0012070BD6068B0F5827FF4D0E5617F
:101FB000F2E784F85050204600F040F8022084F800
:101FC00051002068016821F040010160A08821894A
:101FD00000F4827001F404410843A18901F4006116
:101FE0000843217C01F002010843217D01F0010139
:101FF0000843218B01F400710843217F01F038016F
:10200000084394F8201001F080010843218D01F469
:102010000051084321680860A069042101EA1040CA
:10202000216848602068C16921F40061C16165656B
:10203000012084F85100002070BD000000B585B07B
:102040000021009101910291039100680F4988429B
:102050001AD10F48816941F480518161816901F48D
:1020600080510491816941F0040181618069694670
:1020700000F004000490A0200090022001900320B2
:1020800003900448FFF796FA05B000BD0030014008
:1020900000100240000801402DE9F84F044690F876
:1020A000500000271D461646894601280DD04FF0E6
:1020B000010B84F850B0FFF773FB804694F8510091
:1020C000BA46012804D0022793E00220BDE8F88F29
:1020D000B9F1000F73D0002E71D0032084F85100A5
:1020E000C4F854A0C4F83090A686E686C4F838A098
:1020F000A4F83CA0A4F83EA0C4F844A0C4F840A0B2
:10210000A068B0F5004F09D12068016821F04001B6
:1021100001602068016841F4804101602068016825
:10212000490603D4016841F040010160E068B0F560
:10213000006F606803D030B3012E24D041E008B1B5
:10214000012E1CD1206B21680088C86006E0206841
:102150008168890709D5216B0988C160206B801CC3
:102160002063E08E401EE08609E0FFF719FBA0EB3C
:102170000800A84202D3681C01D031E07DB3E08E94
:102180000028E4D120E0206B21680078087306E085
:1021900020688168890709D5216B09780173206B54
:1021A000401C2063E08E401EE0860AE0FFF7F8FA4C
:1021B000A0EB0800A84203D3681C02D010E017E08F
:1021C0006DB1E08E0028E3D142462946204601F059
:1021D00086FA08B120206065A06818B106E0FFE724
:1021E000032706E02068C16880680090606D00B138
:1021F000012784F851B084F850A0384666E710B53E
:10220000401EB0F1807F01D3012010BD4FF0E024CB
:1022100060610F21601701F089FE0020A061072096
:102220002061002010BD7047704710B590F83C2029
:10223000012A22D0012280F83C20CA688C6822F44E
:10224000407222434C6822F4806222430C6822F4DC
:10225000006222430C6922F4805222434C6922F42A
:1022600000522243C969002322F480420A430168D4
:102270004A6480F83C30002010BD022010BD0000F0
:1022800070B590F83C20012A26D0012480F83C400B
:10229000022280F83D2003685A689D6822F070068B
:1022A0000A6832435A600D4B02689A4208D0B2F174
:1022B000804F05D00A4B9A4202D00A4B9A4204D171
:1022C000496825F080031943916080F83D40002162
:1022D00080F83C10084670BD022070BD002C014003
:1022E000000400400008004010B5040003D094F83A
:1022F0003D0010B107E0012010BD002084F83C0033
:10230000204600F01FF8022084F83D00211D2068BF
:1023100001F09EFA012084F8460084F83E0084F81B
:102320003F0084F8400084F8410084F8420084F8BB
:10233000430084F8440084F8450084F83D00002000
:1023400010BD000030B585B005460020009001901A
:1023500002900390374B2A6837499A4220D18A6904
:1023600042F400628A618969354C01F4006104918C
:10237000324921601021C4E901108021E160490047
:102380002161890061612021C4E906102046FFF720
:10239000ABF808B1FEF78EFC6C62656205B030BD2B
:1023A000B2F1804F0BD0274882422FD1C86940F04C
:1023B0000200C861C86900F002000490EEE7C86935
:1023C00040F00100C861C86900F00100049088690C
:1023D00040F0040088618869694600F004000490B8
:1023E0004FF4004000901848FFF7E4F817484168A0
:1023F00021F4407141F0E06141F4807141600022BC
:1024000011461C20FFF738FA1C2010E010488242C9
:10241000C4D1C86940F00400C861C869002200F056
:102420000400049011461E20FFF726FA1E20FFF735
:1024300015FAB3E7002C0140001002401C000240D6
:10244000F428002000040040000801400000014082
:102450000008004090F83D10012901D0012070478C
:10246000022180F83D1000680B49884208D0B0F185
:10247000804F05D00949884202D00949884204D1D9
:10248000816801F00701062903D0016841F00101CC
:102490000160002070470000002C01400004004053
:1024A0000008004090F83D10012901D0012070473C
:1024B000022180F83D100168CA6842F00102CA603A
:1024C00000680B49884208D0B0F1804F05D0094917
:1024D000884202D00849884204D1816801F007018E
:1024E000062903D0016841F0010101600020704716
:1024F000002C0140000400400008004001680A6A06
:1025000041F211131A4207D10A6A9B101A4203D1F1
:102510000A6822F001020A60012180F83D100020C3
:10252000704770B5044690F83C00012817D001258B
:1025300084F83C50022084F83D002068826822F034
:10254000770222F47F4282600868502830D00DDC88
:1025500020284DD005DC98B310283BD148E002205C
:1025600070BD302844D0402834D139E0602828D0CC
:10257000702806D0B0F5805F2CD0B0F5005F29D16F
:102580000AE0CB68D1E90121206801F019FA20683E
:10259000816841F0770109E0CB68D1E90121206829
:1025A00001F00EFA2068816841F48041816011E0F9
:1025B000CA684968206801F0B7FA5021206807E02E
:1025C00016E0CA684968206801F0ECFA60212068CA
:1025D00001F000FA84F83D50002084F83C0070BD02
:1025E000CA684968206801F09FFA40212068EFE737
:1025F000226801461046EBE77047000070B500689E
:10260000B0F1804F32D11A4C1A4D1B4E6078012820
:102610000DD002281AD0032828D10021284600F026
:1026200041FCB0600021284600F04EF91BE000217B
:10263000104800F037FC30602868016A21F00A0178
:1026400001622868016A41F002010BE0002109489B
:1026500000F028FC70602868016A21F00A0101621C
:102660002868016A01626078401C607070BD0000DB
:10267000000000201C280020540700202DE9F04114
:10268000054690F83C000C46012836D0012085F81C
:102690003C008AB3042A42D02868082A51D0D4E9E1
:1026A0000023E168066A26F480560662C669076A56
:1026B00026F4407646EA03234FF6FF7606EA013118
:1026C00023F4704319434FF4005627F4005306EAED
:1026D00002321A43C16102622868C16921F4406173
:1026E000C1612868C169A26841EA0221C161002074
:1026F00085F83C00BDE8F08101E00220FAE7D4E96A
:102700000012E368286801F021FA2868816921F045
:102710000C01816128688169A26811430FE0D4E946
:102720000012E368286801F04FFA2868816921F4F3
:102730004061816128688169A26841EA0221816162
:10274000D5E7D4E90027267B016A21F48071016274
:10275000C169036A21F00301394321F0F007310711
:102760004FF4007647EA116123F4007306EA02226F
:102770001A43C16102622868C16921F00C01C1617C
:102780002868C169A2681143B0E710B5040003D0FE
:1027900094F83D0010B107E0012010BD002084F83E
:1027A0003C00204600F01EF8022084F83D00211D68
:1027B000206801F04DF8012084F8460084F83E00BE
:1027C00084F83F0084F8400084F8410084F8420017
:1027D00084F8430084F8440084F8450084F83D0000
:1027E000002010BD7047000010B5044651B1042907
:1027F0000DD0082910D094F8410094F84520012804
:1028000011D10EE094F83E0094F84220F7E794F8D6
:102810003F0094F84320F2E794F8400094F84420F5
:10282000EDE7012A01D0012010BD022051B1042999
:1028300011D0082918D084F8410084F845000C29EB
:102840001BD136E084F83E0084F842002068C2685C
:1028500042F0020210E084F83F0084F84300206850
:10286000C26842F0040207E084F8400084F84400A3
:102870002068C26842F00802C2600122206801F0AC
:102880001DF80E492068884208D0B0F1804F05D06D
:102890000B49884202D00B49884204D1816801F07B
:1028A0000701062903D0016841F001010160002001
:1028B00010BD2068C26842F01002DDE7002C014024
:1028C000000400400008004030B5044600680D00D8
:1028D00006D0042D08D0082D28D00C2D08D129E0D1
:1028E000C16821F0020102E0C16821F00401C16069
:1028F00000222946206800F0E1FF2068016A41F2C9
:102900001112114207D1016A9210114203D10168DC
:1029100021F001010160012085B1042D11D0082DA5
:1029200012D004F8410F2071002030BDC16821F0A1
:102930000801DCE7C16821F01001D8E704F83E0F78
:10294000F1E704F83F0FEEE704F8400FEBE770B54E
:102950000446006801694FF00005C943890715D492
:10296000C168C943890711D4E91E0161012020779C
:10297000206880698007204602D0FFF73FFE04E010
:1029800000F0BEF8204600F04DF925772068016977
:10299000C943490717D4C168C943490713D46FF025
:1029A00004010161022020772068806910F4407FD3
:1029B000204602D0FFF722FE04E000F0A1F82046F6
:1029C00000F030F9257720680169C943090716D45A
:1029D000C168C943090712D46FF0080101610420DE
:1029E00020772068C0698007204602D0FFF706FEE6
:1029F00004E000F085F8204600F014F925772068FF
:102A00000169C943C90617D4C168C943C90613D4AB
:102A10006FF010010161082020772068C06910F470
:102A2000407F204602D0FFF7E9FD04E000F068F89F
:102A3000204600F0F7F8257720680169C943C907E7
:102A400008D1C168C943C90704D1891E0161204664
:102A500000F00EFA20680169C943090609D4C1686B
:102A6000C943090605D46FF0800101612046FFF7D4
:102A7000DAFB20680169C943490609D4C168C94322
:102A8000490605D46FF040010161204600F01FFAAD
:102A900020680169C94389060BD4C168C943890606
:102AA00007D46FF0200101612046BDE87040FFF7B8
:102AB000BBBB70BD00B585B00021009101910291B2
:102AC000039100680B49884212D10B48816941F09B
:102AD000040181618069694600F0040004904FF4AC
:102AE000807000900220019003900448FEF762FD80
:102AF00005B000BD002C014000100240000801405C
:102B0000704770B5044690F83C000D4601280AD085
:102B1000012084F83C0042B1042A18D0082A2AD0A7
:102B20000C2A4DD139E0022070BD206800F05AFF18
:102B30002068816941F0080181612068816921F084
:102B400004018161206881692A69114311E02068CC
:102B500000F070FF2068816941F4006181612068A4
:102B6000816921F480618161206881692A6941EA73
:102B70000221816124E0206800F088FF2068C1699B
:102B800041F00801C1612068C16921F00401C161FF
:102B90002068C1692A69114311E0206800F0A2FF92
:102BA0002068C16941F40061C1612068C16921F4F4
:102BB0008061C1612068C1692A6941EA0221C1615D
:102BC000002084F83C0070BD10B5040003D094F8D8
:102BD0003D0010B107E0012010BD002084F83C004A
:102BE000204600F01EF8022084F83D00211D2068D8
:102BF00000F02EFE012084F8460084F83E0084F8A0
:102C00003F0084F8400084F8410084F8420084F8D2
:102C1000430084F8440084F8450084F83D00002017
:102C200010BD70470021014800F0C6B8D42700202D
:102C3000704700002DE9F04117460D0004460CD006
:102C4000042D11D0082D16D094F84100022819D077
:102C500094F84100012818D09AE094F83E00022828
:102C600010D094F83E00F5E794F83F00022809D010
:102C700094F83F00EEE794F84000022802D094F860
:102C80004000E7E70220BDE8F0810FB9002B7FD1BB
:102C90004349444E444A022045B1042D16D0082D24
:102CA00024D084F841000C2D3AD164E084F83E0031
:102CB000606A8162606A3946C662606A026322683D
:102CC000606A3432FEF73EFCF0BB1FE084F83F0040
:102CD000A06A8162A06A3946C662A06A026322685D
:102CE000A06A3832FEF72EFC70BB14E084F8400076
:102CF000E06A8162E06A3946C662E06A026322687D
:102D0000E06A3C32FEF71EFCF0B92FE02068C16893
:102D100041F4007103E02068C16841F48061C16042
:102D200001222946206800F0C9FD20492068884218
:102D300003D1426C42F400424264206888420AD0C7
:102D4000B0F1804F07D000E022E01949884202D05C
:102D50001849884204D1816801F00701062903D08F
:102D6000016841F00101016000208CE72068C16822
:102D700041F40061D3E7206B8162206B3946C66263
:102D8000206B02632268206B4032FEF7DBFB08B148
:102D9000012078E72068C16841F48051BFE7000056
:102DA000D7380008353900086D390008002C01407B
:102DB000000400400008004070B5044600680D00A3
:102DC00006D0042D0AD0082D3AD00C2D0DD13DE0AF
:102DD000C16821F40071C160606A04E0C16821F437
:102DE0008061C160A06AFEF789FA00222946206846
:102DF00000F064FD1D4B41F2111120688A109842C9
:102E000009D1036A0B4206D1036A134203D1436C12
:102E100023F4004343642068036A0B4206D1016A2D
:102E2000114203D1016821F00101016001209DB12F
:102E3000042D14D0082D15D084F84100002070BD59
:102E4000C16821F40061C160E06ACCE7C16821F487
:102E50008051C160206BC6E784F83E00EEE784F83D
:102E60003F00EBE784F84000E8E70000002C014059
:102E700010B50068084988420CD102F031F801F021
:102E80009DFD07480549C06BFDF7FAF9BDE8104004
:102E900001F030BD10BD00000008004000007A4481
:102EA000000000200246002041B1042909D0082971
:102EB0000AD00C2901D11068006C70471068406B73
:102EC00070471068806B70471068C06B7047704720
:102ED00070477047F8B5026804461068D1685369B6
:102EE00010F00F0F4FF0000553D003F0010601F46E
:102EF000907737435FD0C20705D0CA0503D5226C4F
:102F000042F001022264420705D5DA0703D0226CA1
:102F100042F002022264820705D5DA0703D0226C50
:102F200042F004022264020707D501F02002324376
:102F300003D0226C42F008022264226C002A34D0B2
:102F4000800604D5880602D5204600F078FE206869
:102F50004069216CC0F38010090700D430B32046CB
:102F600000F055FE2068416949061BD5416921F0F2
:102F700040014161A06BA8B158494163A06BFEF7C5
:102F8000BDF9002811D0A06B416B01B0BDE8F04045
:102F9000084783060FD58B060DD52046BDE8F840BF
:102FA00000F04DBE2046FFF794FFF8BD2046FFF726
:102FB00090FF2564F8BD266B2023012E52D1C60652
:102FC00050D5CE064ED51068506800905069400626
:102FD0002AD5A16B086840680004000CEAD0A68DD1
:102FE0008642E7D9E0858869202818D0D06820F487
:102FF0008070D0602068416921F001014161206842
:10300000416921F04001416184F83E302563206828
:10301000C16821F01001C160A06BFEF74CF9A08DD2
:10302000E18D401A81B219E0A08DE18D401A81B284
:10303000E08D0028BED00029BCD0D06820F490706C
:10304000D0602068426922F00102426184F83E307B
:1030500025632068C26822F01002C2602046FFF794
:1030600037FFF8BD05062BD50D0629D594F83D0090
:103070002128F6D1A068B0F5805F01D12069B0B1F8
:10308000206A411C2162216800784860E08C401E63
:103090000004000CE084E4D12068C16821F08001C4
:1030A000C1602068C16841F04001C160F8BD206A7C
:1030B0000088C0F308005060206A801C2062E5E7A9
:1030C0004006F3D54806F1D5D168204621F04001ED
:1030D000D16084F83D3000F00CF9F8BDFF3B0008EA
:1030E00070B5040004D094F83D00002510B106E04E
:1030F000012070BD84F83C50204600F023F82420C5
:1031000084F83D002068C16821F40051C160204668
:1031100000F0F0FD2068016921F490410161206810
:10312000416921F02A0141612068C16841F40051E0
:10313000C1602564202084F83D0084F83E00002012
:1031400070BD000030B585B0002400940194029455
:1031500003940068184988422CD11848816941F4C9
:1031600080418161816901F480410491816941F06C
:10317000040181618069124D00F0040004904FF455
:1031800000700090022001900320039069462846B9
:10319000FEF710FA2815CDE9000469462846029486
:1031A000FEF708FA002211462520FEF765FB2520D0
:1031B000FEF754FB05B030BD00380140001002405E
:1031C0000008014090F83E30202B0ED159B152B189
:1031D00090F83C30012B08D0012380F83C300023CC
:1031E000036300F0E3BD0120704702207047000038
:1031F0000068104988421CD10F480146027849698D
:103200002B2A03D02D2A03D0416903E0643100E06A
:10321000643941610A2900DA0A214FF4617241617F
:10322000914200DD11464161012203490348FFF745
:10323000C9BF704700380140000000203829002035
:103240002DE9F843044690F83D001F4616460D460A
:1032500020284CD1C5B1BEB194F83C00012846D01D
:10326000012084F83C004FF00008C4F84080212081
:1032700084F83D00FEF794FAA6848146E684A068AF
:10328000B0F5805F03D004E00120BDE8F883206939
:1032900028B12E465FF0000584F83C800EE0002641
:1032A000FAE78021204600F09CFDA0B9AEB116F8E7
:1032B000010B21684860E08C401EE084E08C4B46A6
:1032C0004FF0000200970028EBD14FF0400120465C
:1032D00000F087FD30B10320D7E735F8020BC0F3CB
:1032E0000800E6E7202084F83D000020CDE702201A
:1032F000CBE77047FEE710B50021092000F0F6FD8E
:1033000003210A2000F0F2FD07210B2000F0EEFD62
:1033100001210C2000F0EAFD00210F2000F0E6FD65
:1033200001240021204600F0E1FD641CE4B2092CD8
:10333000F7D310BD3EB500241048009401940294C8
:103340000D498460016004730475012505614FF423
:1033500000214460C161FDF71DFE08B1FDF7AAFC24
:10336000CDE90045694605480294FDF713FD0028A4
:1033700001D0FDF79FFC3EBD00240140082700203E
:103380000D4808B5416941F00101416140690022E1
:1033900000F00100009011460B20FEF76DFA0B20A3
:1033A000FEF75CFA002211460C20FEF765FABDE834
:1033B00008400C20FEF752BA0010024030B585B02C
:1033C000002418480094019402940394816941F008
:1033D00010018161816901F010010491816941F05E
:1033E00020018161816901F020010491816941F02E
:1033F0000401816180690C4D00F0040004900022FA
:1034000050212846FEF7C6F9502000900120CDE952
:1034100001040220039069462846FEF7CBF805B068
:1034200030BD00000010024000080140104810B5F7
:103430000E4901604FF48271416000218160C160DA
:103440004FF400720161C0E905120822C0E90721AA
:10345000416281620A21C162FEF796FD002803D015
:10346000BDE81040FDF726BC10BD00000030014053
:103470007C27002010B596B000240F94109411946E
:10348000129413941C2108A81494FCF764FE2021C4
:103490006846FCF760FE27482549C0E90014592119
:1034A000C0E90241046144618461FEF71DFF08B177
:1034B000FDF700FC4FF480500F900FA91D48FFF757
:1034C00030F808B1FDF7F6FB1A48FFF77DFB08B1AD
:1034D000FDF7F0FB139413A916481494FEF7D0FEE1
:1034E00008B1FDF7E7FB6020CDE908040A940B94CE
:1034F0000C940D94002208A90E480E94FFF701FBCE
:1035000008B1FDF7D7FB00944FF40050CDE904401B
:10351000029401940394694606480794FEF785FED9
:1035200008B1FDF7C7FB0348FFF7C4FA16B010BD9A
:10353000002C0140D427002010B58AB00024224876
:1035400004940594069407940894099400940194B3
:1035500002944FF08041039401601521C0E90114E9
:103560004FF6FF71C0E9031480218161FEF7BCFEB4
:1035700008B1FDF79FFB4FF48050049004A9124856
:10358000FEF7CFFF08B1FDF795FB0F48FFF7FDF8F9
:1035900008B1FDF78FFB089408A90B480994FEF7C2
:1035A0006FFE08B1FDF786FB0120CDE900400294D3
:1035B0000022694604480394FFF760F8002801D010
:1035C000FDF778FB0AB010BD1C28002010B586B0AE
:1035D000002417480094019402940394049413491E
:1035E0000594C0E900144FF6FF71C0E90241802143
:1035F00004618161FEF778FE08B1FDF75BFB4FF4D3
:103600008050009069460A48FEF78BFF08B1FDF72D
:1036100051FB2020CDE9040404A90548FEF730FE43
:10362000002801D0FDF746FB06B010BD00040040A5
:103630006428002010B586B0002418480094019436
:1036400002940394049414490594016040F2CF213C
:10365000C0E9011442F20F71C0E9031480218161B5
:10366000FEF742FE08B1FDF725FB4FF480500090B5
:1036700069460A48FEF755FF08B1FDF71BFB0494A5
:1036800004A906480594FEF7FBFD002801D0FDF7CC
:1036900011FB06B010BD000000080040AC2800205F
:1036A0000C4810B50A4901604FF4165141600021E1
:1036B00081600C22C160C0E904128161C161FFF721
:1036C0000FFD002803D0BDE81040FDF7F3BA10BD90
:1036D0000038014038290020FEE7FEE7704738B582
:1036E0000B46009204460022802100F009F80028D1
:1036F00004D0606D40F020006065032038BD0000FC
:103700002DE9F8431E46914688460446089DFEF77B
:1037100047F8401B351AFEF743F80746254800686E
:10372000C0F3CB30684338E0701C37D0FEF738F870
:10373000C01BA84203D215B1009860B32CE02068EA
:10374000416821F0E00141606068B0F5827F0BD1F3
:10375000A068B0F5004F02D0B0F5806F04D12068AA
:10376000016821F040010160A06AB0F5005F09D155
:103770002068016821F4005101602068016841F46B
:1037800000510160012084F85100002084F85000AD
:103790000320BDE8F8830025401E00902068816862
:1037A00038EA010004D000214945BDD10020F0E7EE
:1037B0000121F9E7780000207047FDF7F7BF30B529
:1037C00093B028216846FCF7C6FC14210AA8FCF730
:1037D000C2FC002501200F9510951195010412954A
:1037E0008DE8230004904FF4E010CDE90810022486
:1037F00007946846FEF738FA08B172B6FEE70AA9E0
:103800000F2081E831004FF48060CDE90D050221E1
:103810000AA8FEF73DF908B172B6FEE74FF4004082
:1038200011900F940FA8FEF7BDF8002801D072B6D2
:10383000FEE713B030BD70470148FFF788B80000BD
:103840001C2800200148FFF782B80000AC280020A7
:10385000F0B50268164B174C174D4FF08047984251
:1038600005D0B84203D0A04201D0A84203D122F033
:1038700070064A683243984205D0B84203D0A0424D
:1038800001D0A84203D122F44074CA6822434C6993
:1038900022F08002224302608A68C2620A68826261
:1038A000984201D10969016301214161F0BD000025
:1038B000002C0140000400400008004010B501F059
:1038C0001F030121046A99408C430462016A9A40F3
:1038D0001143016210BD10B5446A0121626A82423F
:1038E00005D121778069F8B984F83E101CE0A26AFE
:1038F000824206D1022222778069A8B984F83F105B
:1039000012E0E26A824206D104222277806958B925
:1039100084F8401008E0226B824205D10822227709
:10392000806908B984F841102046FFF77BF9002030
:10393000207710BD10B5446A616A814201D101202F
:103940000DE0A16A814201D1022008E0E16A8142D2
:1039500001D1042003E0216B814201D108202077AE
:103960002046FFF765F90020207710BD10B5446AA6
:103970000121626A824203D1217784F83E1019E066
:10398000A26A824204D10220207784F83F1011E01D
:10399000E26A824204D10420207784F8401009E0D2
:1039A000226B824204D10820207784F8411001E084
:1039B00084F83D102046FEF71FFE0020207710BD42
:1039C00010B5846842EA032224F47F440A43224368
:1039D000826010BD826822F070020A4342F0070143
:1039E0008160704730B5026A22F001020262026A09
:1039F0004368846924F073050C682C4322F00205A7
:103A00008A682A430A4DA8420BD122F00805CA68E9
:103A100023F440732A434D6922F004021D438B694D
:103A20002B434360846149684163026230BD0000FA
:103A3000002C014030B5026A22F010020262026AD4
:103A4000436884690D6824F4E64444EA05248D68DB
:103A500022F0200242EA05120B4DA8420ED1CD6899
:103A600022F0800242EA05124D6923F4406343EAE2
:103A700085038D6922F0400243EA85034360846137
:103A800049688163026230BD002C014030B5026A92
:103A900022F480720262036A4268C46923F40073EC
:103AA00024F073050C682C438D6843EA05230C4D04
:103AB000A8420ED1CD6823F4006343EA05234D6983
:103AC00022F4405242EA05128D6923F4806342EAEF
:103AD00005124260C4614968C163036230BD0000E1
:103AE000002C014030B5026A22F480520262046A5E
:103AF0004268C3690D6823F4E64343EA05238D68F1
:103B000024F4005444EA0534064DA84204D14D691A
:103B100022F4804242EA85124260C361496801642E
:103B2000046230BD002C014010B5036A046A24F021
:103B300001040462846924F0F00444EA021423F0CE
:103B40000A020A438461026210BD000070B5046A73
:103B500024F0010404628469056A0F4EB04208D063
:103B6000B0F1804F05D00D4EB04202D00C4EB042A5
:103B700003D124F00304144301E044F001041A07C4
:103B800024F0F00444EA126225F00A0301F00A016D
:103B900019438261016270BD002C014000040040A5
:103BA0000008004010B5036A23F010030362836924
:103BB000046A23F4704343EA023224F0A00343EA88
:103BC00001118261016210BD30B5046A24F0100455
:103BD00004628469056A24F4407444EA022222F4EF
:103BE00070444FF6FF7202EA03322243A02425F00C
:103BF000A00304EA011119438261016230BD10B5CE
:103C0000406A0021C185C184FFF763F910BD0168D6
:103C1000CA6822F49072CA6001684A6922F00102FF
:103C20004A61016B012904D10168CA6822F01002BF
:103C3000CA60202180F83E1000210163704708B55A
:103C400090F83E10222901D0022008BD82684FF46E
:103C500080539A4201D1016921B1816A9A421BD0F5
:103C60004AB10AE00268816A5268C2F308020A8017
:103C7000816A891C08E0026972B10268526802F028
:103C80007F020A70816A491C8162C18D491E090444
:103C9000090CC18503D019E002685268F1E7016898
:103CA000CA6822F02002CA600168CA6822F48072E1
:103CB000CA6001684A6922F001024A61202180F845
:103CC0003E10016B012903D0FFF792FA002008BDD6
:103CD000002101630168CA6822F01002CA6001680D
:103CE0000A68D20602D50A6849680091818DFFF7FB
:103CF000EFF8EBE770B5044600680169E26821F46B
:103D00004051114301612169A0680843616908437A
:103D10002168CA6841F20C639A430243CA60206872
:103D20004169A26921F44071114341611E49206833
:103D3000884202D1FDF752FF01E0FDF73FFF00EBA3
:103D4000C00101EB0012606864218000B2FBF0F357
:103D5000B3FBF1F36FF018067343B2FBF0F5B2FB5F
:103D6000F0F605EB8305322303EB0515B5FBF1F502
:103D7000B6FBF1F605F0F00505EB0615B2FBF0F623
:103D8000B2FBF0F0B0FBF1F06FF01802504306EB1D
:103D9000800003EB0010B0FBF1F0216800F00F0091
:103DA0002844886070BD000000380140816282852F
:103DB000C28500210164222280F83E2080F83C1058
:103DC0000168CA6842F48072CA6001684A6942F0B8
:103DD00001024A610068C16841F02001C160002011
:103DE00070472DE9F041984617460E460446069D59
:103DF0001DE0681C1BD02DB1FDF7D2FCA0EB080024
:103E0000A84214D92068C16821F4D071C16020682B
:103E1000416921F001014161202084F83D0084F8CE
:103E20003E00002084F83C000320BDE8F0812068BB
:103E3000006836EA000004D00020B842D9D0002043
:103E4000F3E70120F9E700000148FFF743B800005D
:103E500038290020FEE700005020064924224FF4B4
:103E60005A7300BF21F81020401C80B29842F9D349
:103E700000F002B8840000204FF45A73024A002177
:103E80000248FEF7D7BE000084000020D42700209F
:103E9000090441EA002111430A4A03EB430002EB03
:103EA0000012002012F1A00201FA00F31B0201D55A
:103EB000402300E0242322F81030401CC0B2182810
:103EC000F2D370478400002001B50022102105487C
:103ED000FDF760FC40F6FF73012269460248FEF7D9
:103EE000DBF808BD000801407C27002010B50C4617
:103EF000FFF7EAFF2046FFF7E7FF0122BDE8104089
:103F000010210148FDF746BC000801400FB4054BE5
:103F100010B503A9044A029800F0F0F810BC5DF84F
:103F200014FB00003D4900087C0000200907090E31
:103F3000002804DB00F1E02080F80014704700F056
:103F40000F0000F1E02080F8141D704702E008C85F
:103F5000121F08C1002AFAD170477047002001E003
:103F600001C1121F002AFBD17047000001490860FF
:103F700070470000800000202DE9FF5F82B0002123
:103F8000DDE90430020DDDF840B0034318D044F6FB
:103F90001050A2F2FF3242431514119801281FD08D
:103FA000A5EB0B00401C5FEA000A4FF000064E4FE5
:103FB000DFF83891B046504615D5CAF1000413E039
:103FC000119801244AA3012801D16FEA0B0102983C
:103FD000119AC0E90031C0E9024206B0BDE8F09F85
:103FE000CBF10000DFE704460021404A491842EBCC
:103FF0000450CDE9001012E0E00707D032463B46FE
:1040000040464946FCF72DFA8046894632463B46F3
:1040100010461946FCF725FA06460F466410002C98
:10402000EAD1DDE90401DDE90023BAF1000F06DA87
:10403000FCF717FA42464B46FCF713FA05E0FCF78B
:1040400082FA42464B46FCF77EFA04460E460022B0
:10405000284BFCF7A3FB03D84FF0FF30014607E0E5
:104060000022254B20463146FCF754F9FCF72BFD86
:10407000102409E0002C0ADB0A220023FCF7ECFBE9
:10408000039B30321A55641E50EA0102F2D1641CBF
:10409000039AC4F111031444119A012A03D0012296
:1040A00008430DD10AE0084304D000204FF0110B63
:1040B000119072E7A3EB0B056D1E0DE05B4504DD6F
:1040C0004FF0000205F1010504E003DA4FF00002B1
:1040D000A5F10105002AECD002981199C0E902313E
:1040E000C0E9004579E70000000014400000F03FFF
:1040F000300000000000F0430000E03F2DE9FF4FDA
:1041000095B09A46884606460025EEE1252877D1E7
:1041100000242746F94A0121039400E0044316F8DD
:10412000013F203B01FA03F01042F7D130782A28F2
:1041300011D06FF02F033078A0F13002092A16D881
:10414000039A44F0020402EB820203EB42021044A1
:10415000761C0390EFE758F8042B0392002A03DA49
:10416000504244F40054039044F00204761C30782A
:104170002E2816D116F8010F44F004042A280DD079
:104180006FF02F023078A0F13003092B09D807EB2C
:10419000870302EB4303C718761CF3E758F8047B48
:1041A000761C30786C280FD006DC4C2817D0682895
:1041B0000DD06A2814D104E0742810D07A280FD1C9
:1041C0000DE044F400140AE044F4801401E044F4E7
:1041D00040147278824202D104F58014761C761C59
:1041E000307866280BD013DC582877D009DC0028FB
:1041F00075D04528F6D04628F4D047281AD193E147
:1042000018E0632835D0642879D0652812D18BE175
:10421000702873D008DC6728F1D069286FD06E2829
:104220000DD06F2806D1ACE073282CD0752874D03F
:10423000782853D05246179990476D1C54E1C4F327
:104240000250022809D003280DD0D8F80010042805
:104250000DD00D6008F1040846E1D8F80010EA1707
:10426000C1E90052F6E7D8F800100D80F2E70D70B2
:10427000F0E718F8041B8DF8001000208DF80100FD
:10428000EB46012003E058F804BB4FF0FF30610714
:104290004FF0000102D40DE009F101018946B94255
:1042A0000FDA8145F8DB1BF809100029F4D108E08A
:1042B00009F1010189468142FADB1BF80910002946
:1042C000F6D103985346A0EB090721463846179AC2
:1042D00000F080FA284400EB090507E044E008E11B
:1042E0000DE01BF8010B524617999047B9F10109EF
:1042F000F7D2534621463846179AF2E039E00A21B0
:10430000C4F302524FF0000B0091022A06D058F875
:10431000040BC117032A09D00AE023E008F10700C3
:1043200020F00702F2E80201904605E000B2C11752
:10433000042A01D140B2C117002906DA0A46002139
:10434000404261EB02012D2202E0220504D52B221E
:104350008DF80420012203E0E20701D02022F7E7D4
:10436000914657E00A2100E010214FF0000B009128
:104370000BE010214FF0000B44F0040408270091DB
:1043800003E008204FF0000B0090C4F30252022A11
:1043900005D058F8040B0021032A08D008E008F1E2
:1043A000070020F00702F2E80201904603E080B225
:1043B000042A00D1C0B24FF0000922072AD5327872
:1043C000702A07D0DDF800C08CF0100C5CEA0B0CF2
:1043D00005D00EE040228DF80420012208E050EACA
:1043E000010306D030238DF804308DF80520022219
:1043F0009146009B83F0080353EA0B030AD150EA6D
:10440000010201D1620705D530228DF804204FF05A
:1044100001097F1E3278582A04D039A20C920CAAC6
:1044200002920BE03BA2F9E75B46009AFCF714FA14
:104430000C9B9B5C029A521E0292137050EA01027E
:10444000F2D1029804A9081A00F1200B600702D5E6
:1044500024F4803400E001275F4502DDA7EB0B0068
:1044600000E0002000EB0B01009003984944401A43
:104470000390E00306D453462146179A039800F0B0
:10448000A9F90544002706E001A85246C05D179926
:1044900090476D1C7F1C4F45F6DBE0030CD553465F
:1044A0002146179A039800F095F9054404E030205E
:1044B0005246179990476D1C0099481E009000299C
:1044C000F5DC08E00298029952460078491C0291F6
:1044D000179990476D1CBBF10001ABF1010BF1DCAA
:1044E0005BE100F065F90544761C307800287FF424
:1044F0000DAE19B02846BDE8F08F00000928010074
:104500003031323334353637383961626364656649
:10451000000000003031323334353637383941420B
:104520004344454600000000600700D4062708F118
:10453000070020F00700F0E80223804603F0004C5B
:104540005FEA0C0001D097A009E0200501D596A0F4
:1045500005E0E00701D095A001E0AFF24C00139018
:10456000307823F0004365280CD006DC452809D0BC
:1045700046281DD047287FD13BE0662818D0672801
:104580007AD136E00021112F01DB112000E0781CE8
:10459000CDE9000104A90CA8FFF7EEFCDDE90D014F
:1045A0000C9A4FF0000B07F10109109200914EE0B8
:1045B0004FF000400097CDE9011004A90CA8FFF7C7
:1045C000DBFCDDE90D020C9B0F994FF0000B9146CF
:1045D0001093009211B9791C00EB0109B7EB0900A7
:1045E00003D4C0F1FF3B07F10109A9EB07000190DB
:1045F00042E0012F00DA01270021112F01DD1120F7
:1046000000E03846CDE9000104A90CA8FFF7B4FC8E
:10461000DDE90D010C9A00914FF0000BB9461092A4
:1046200021070FD4009A4A4503DA914601E0A9F127
:104630000109B9F1010F05DD109AA9F10101515CE1
:104640003029F4D0B84202DA10F1040F03DA012164
:10465000CDE9011010E0002803DC8344A9EB000140
:1046600002E0411C494500DD8946A0EB0B00401CDF
:1046700001904FF000400290200705D40198484572
:1046800002DB4FF0FF30019000208DF84B000298C4
:104690000DF14B07B0F1004F25D002200C902B20DC
:1046A0000D90029800280CDA404202902D200D90C7
:1046B00007E00A210298FCF7B9F83031029007F8B8
:1046C000011D0C99481E0C900029F2DC029800286C
:1046D000EFD1791E0D980870307800F0200040F07E
:1046E000450007F8020D11A8C01BC01D02901398C9
:1046F000007800B1012000EB0901019801EBE071A5
:10470000029801440398401A401E0390E00306D427
:1047100053462146179A039800F05CF80544139815
:10472000007818B15246179990476D1CE00323D5C5
:1047300053462146179A039800F04CF805441BE0B5
:10474000BBF1000F07DB0098584504DD109817995E
:1047500010F80B0001E0179930205246904701985D
:104760000BF1010B401E05F10105019004D12E2033
:104770005246179990476D1CB9F10001A9F1010942
:10478000DEDC05E017F8010B5246179990476D1CC7
:104790000299481E02900029F4DC53462146179ADC
:1047A00003989EE62D0000002B0000002000000072
:1047B0002DE9F041044600251E461746880404D41E
:1047C00005E039462020B0476D1C641EF9D5284607
:1047D000BDE8F0812DE9F041044600251E469046D3
:1047E000C80301D5302700E02027880404D505E060
:1047F00041463846B0476D1C641EF9D52846BDE8D1
:10480000F0810000074810B54468C06AFBF7B2FFAA
:10481000012C03D1044A054BFBF723FEBDE81040F1
:10482000FBF7D4BF0000002039B4C876BE9FF63F26
:1048300070B50D4601462548FBF722FDFBF74EFFFC
:104840000446FBF725FF00F0A3FAFBF77AFF0246C8
:104850000220C303591E15E0B4FBF0F600FB164618
:104860007EB901280DD9B4FBF0F6012E09D9B4FBAD
:10487000F0F69E4205D2B4FBF0F6761EEE62461EBE
:10488000AE62401C9042E7D98842E5D30220641C06
:1048900016E000BFB4FBF0F600FB16467EB9012817
:1048A0000DD9B4FBF0F6012E09D9B4FBF0F69E4207
:1048B00005D2B4FBF0F6761EEE62461EAE62401CD8
:1048C0009042E7D98842E5D370BD00004054894C3E
:1048D00001B5002240210548FCF75CFF40F6FF735C
:1048E000012269460248FDF7D7FB08BD00080140D8
:1048F0007C27002010B5FBF73DFF4FF066320C4BD4
:10490000FBF721FE00220B4BFBF7ABFDFBF7FAFE9A
:104910000446C0F30720FFF7DBFFE0B2FFF7D8FF44
:104920000122BDE8104040210348FCF733BF0000DE
:1049300066660A40E0FFEF400008014013B54FF6FD
:10494000FF73012269460248FEF77AFC00981CBDFD
:10495000382900202DE9F047174EF06AFBF70AFFCF
:1049600081468A46306BFBF705FF054688460020E6
:104970004FF0804100F00CFA07460C46306BFBF715
:10498000F9FE3A462346FBF7DEFD2A464346FBF78F
:10499000C1FC4FF0FF32FBF745FE4A465346FBF79A
:1049A0005AFD00221346FBF7F9FE02D20120BDE8B2
:1049B000F0870020FBE70000000000202DE9F04117
:1049C00018480121406BFBF799FC1749FBF758FC8D
:1049D000FBF7D0FE0022154BFBF79CFCFBF792FE89
:1049E00001240546274610E0082D02DBFF26083D7E
:1049F00006E007FA05F6C5F10800761E8640002598
:104A0000F1B2E0B2FFF772FA641C45B1082CEBDD9D
:104A1000BDE8F081E0B20021FFF768FA641C082CC1
:104A2000F8DDF5E700000020000048420000E03F0C
:104A300008B5FCF7C3FEFEF7C2FEFEF7BFFCFEF7AB
:104A40009FFCFEF777FCFEF72BFEFEF775FDFEF7E9
:104A5000BDFDFEF70FFDFEF7EDFDFEF7E7FCFEF7EF
:104A60004AFCB048FFF746FFAF48FCF725F90122A2
:104A7000AE49AF48FEF7A6FBAE49AF48FFF7D8FEF8
:104A8000AE48FDF7E7FCAE48FDF70CFD4FF47A7237
:104A9000AC49A548FCF75EFBA44C607810B1042833
:104AA0000FD10FE001206070A74801680A6A22F068
:104AB0000A020A620068016A01620021A248FDF749
:104AC00093FE89E09F4D143DD5E90010401A152151
:104AD00000F084F9A061D5E90110401A152100F019
:104AE0007DF90146E061A0690746FBF73FFB2062C4
:104AF000FBF740FE054688460E463846FBF73AFE71
:104B00000022924BFBF7ADFC33462A46FBF71BFD18
:104B1000FBF75CFE6062A06BFBF72CFE4346DFF800
:104B2000308206460F462A4600204146FBF70BFD21
:104B300032463B46FBF78FFC00221346FBF72EFE66
:104B40000ED2A06BFBF716FE05460E46206AFBF759
:104B500011FE02460B4600204146FBF7F4FC0DE037
:104B6000206AFBF707FE02460B4600204146FBF792
:104B7000EAFC05460E46A06BFBF7FCFD2A463346D1
:104B8000FBF769FC0022734BFBF708FE1BD26B4856
:104B9000FDF7B4FC6448FCF763FB6F49A06A8842E8
:104BA00004DB6E49FBF73AFB624901E06149624868
:104BB000FFF73EFE6148FDF74DFC4FF47A72614904
:104BC0005948FCF7C7FAA06AA0636548216AFBF759
:104BD00057FBA06200206070A068A14600283FF447
:104BE0005BAF4FF0000BDFF87CA15F4D5E465C468B
:104BF0004FF47A77534850F82400FBF749FD002220
:104C00005A4BFBF72EFC6FF00B02FBF70BFD01225A
:104C1000FBF708FDFBF7DAFD45F824005946FBF7E2
:104C2000FBFD01D255F824B055F824005146FBF79E
:104C3000E9FD01D255F824A0641CA846BC42D9DB8A
:104C40005046FBF797FD4FF0FF32FBF7EBFC0546B4
:104C50000C465846FBF78EFD4FF0FF32FBF7E2FCA7
:104C60002A462346FBF756FBFBF7B0FD4C46C9F836
:104C70003C00DFF8E49000254746009057F82500F7
:104C80000099FBF7C5FA4946FBF7FAFA0146FBF72C
:104C9000C5FA3146FBF76AFA6D1C0646B5F57A7F10
:104CA000ECDB00F0AFF832A0FFF730F931A0FFF7EE
:104CB0002DF9DFF8D080DFF8D0900025414657F875
:104CC0002500FBF7ABFA4946FBF7DAFAFBF7EDFCF8
:104CD00001462EA0FFF71AF96D1C462DEEDB30467B
:104CE000FBF748FD1B4D00222B46FBF72CFC00F088
:104CF0004FF800222B46FBF7B4FBFBF767FDE062A1
:104D000051465846FBF784FA4FF0FF31FBF7F6FAAD
:104D10002063FFF71FFE6060FFF774FD60630020F3
:104D2000A060B9E6000040400827002000000020F5
:104D300038290020000400400024F44864280020A2
:104D4000AC280020680700201C28002000005940E3
:104D500080842E4100408F4000007A4400002041B2
:104D600000247449003C1C460817002000C8A940D4
:104D7000FFFFFF006164647420312C302C3530FF5C
:104D8000FFFF000000007F4300409C4525630000BA
:104D90002DE9F04106460F46FBF744FE041E0D4682
:104DA00018BF0120284320F00040C0F17F6000F1CF
:104DB000E040C00F0ED0301C18BF0120384320F057
:104DC0000040C0F17F6000F1E040C00F04BF01204F
:104DD000FFF7CCF820462946BDE8F08170B50546BE
:104DE000481CFBF73FFC04462846FBF73BFC2146EA
:104DF000FBF714FABDE870400149FBF741BA000027
:104E0000000090422DE9F04F87B022A0FFF77EF816
:104E1000214CDFF888B060680128E06B21D0FBF7F7
:104E2000A9FC81468A46606AFBF7A4FC07468846CF
:104E3000606BFBF79FFC05460E46A06AFBF79AFCE9
:104E400000225B46FBF77FFB8DE8E00702460B463E
:104E50001348FFF75BF807B00EA0BDE8F04FFFF76F
:104E600055B8FBF787FC07468846606BFBF782FC6A
:104E700005460E46A06AFBF77DFC00225B46FBF769
:104E800062FB8DE8E00102460B4606A0FFF73EF804
:104E9000E1E70000FFFFFF000000002000408F401E
:104EA000D050000874302E7478743D2220576176FB
:104EB000653A2053696E6520467265713A20252E49
:104EC00031666B487A200D0A2056703A20252E3024
:104ED000666D56205664633A20252E3066562200B1
:104EE0002DE9F05FFEF7B8FFDFF8A4B10026DFF888
:104EF000A4A1DBF8285050243746554546DDDFF89D
:104F00009881DFF89891404645451CDC2946FBF71F
:104F10007FF94E464946FBF781F9DFF88481414627
:104F2000FBF7AEF9FBF7C1FB044651462846FBF7F9
:104F30006FF93146FBF772F94146FBF7A1F9FBF730
:104F4000B4FB064622E057484FF0000485421CDAC5
:104F50002946FBF75DF94F464946FBF75FF9DFF855
:104F600048914946FBF78CF9FBF79FFB0646414603
:104F70002846FBF74DF93946FBF750F94946FBF750
:104F80007FF9FBF792FB074600E05027D846DBF895
:104F90001000FBF76CFB81468A462846FBF7EAFBCC
:104FA000424A434BFBF75DFA4A465346FBF759FA30
:104FB00005468946D8F80C00FBF7DCFB2A464B4631
:104FC000FBF7A8F9FBF702FC3A4D4146C8F80C0084
:104FD000A84205DBCD604FF0FF31C8F8101007E0A4
:104FE000B0F5000F04DA0020C8600120C8F81000F6
:104FF0002046FBF72EFBD8F80C1044468946FBF7F9
:105000000DF9A8462946FBF73BF9FBF74EFB054691
:105010003046FBF71EFB4946FBF700F94146FBF71C
:105020002FF9FBF742FB06463846FBF712FB4946D1
:10503000FBF7F4F84146FBF723F9FBF736FB07468D
:1050400060684FF00004012812D0DFF8448008F1B6
:10505000500800BF38F81430FAB2F1B2E8B2FEF7E7
:1050600017FF641C0E2CF5DBBDE8F05FFEF704BFF4
:10507000DFF81C8008F14008FAB238F81430F1B2B9
:10508000E8B2FEF705FF641C082CF5DBECE7000036
:105090000000002000007A4400E0AB450000A04280
:1050A00000A08C450030724600401C46FCA9F1D29D
:1050B0004D62603F0000C842000000000000000098
:1050C00001020304060708090000000001020304AE
:1050D00074302E7478743D2220576176653A2053DF
:1050E000717561726520467265713A20252E3166B0
:1050F0006B487A2056703A20252E30666D56200D6A
:105100000A20447574793A20252E306625252056CC
:1051100064633A20252E30666D5622003C5100080B
:1051200000000020840000004C3F0008C05100082F
:1051300084000020FC2C00005C3F00080000000000
:10514000000000000000000000000000010000005E
:1051500064000000000000000000000000000000EB
:10516000000000000000000000000000000000003F
:105170000000000000000000000000001800110006
:105180000A00030004000D0016001F00180019009B
:105190001A0012000A0002000300040005000D00BE
:1051A00015001D001E001F0001000000100000007F
:1051B000000000000024F4000000000000000000D7
:04000005080000ED02
:00000001FF
